
UART_test.elf:     file format elf32-avr

Sections:
Idx Name          Size      VMA       LMA       File off  Algn
  0 .data         00000030  00800100  0000074c  000007e0  2**0
                  CONTENTS, ALLOC, LOAD, DATA
  1 .text         0000074c  00000000  00000000  00000094  2**1
                  CONTENTS, ALLOC, LOAD, READONLY, CODE
  2 .bss          00000006  00800130  00800130  00000810  2**0
                  ALLOC
  3 .comment      0000005c  00000000  00000000  00000810  2**0
                  CONTENTS, READONLY
  4 .note.gnu.avr.deviceinfo 00000040  00000000  00000000  0000086c  2**2
                  CONTENTS, READONLY
  5 .debug_aranges 00000050  00000000  00000000  000008ac  2**0
                  CONTENTS, READONLY, DEBUGGING
  6 .debug_info   00000c5c  00000000  00000000  000008fc  2**0
                  CONTENTS, READONLY, DEBUGGING
  7 .debug_abbrev 00000adb  00000000  00000000  00001558  2**0
                  CONTENTS, READONLY, DEBUGGING
  8 .debug_line   00000439  00000000  00000000  00002033  2**0
                  CONTENTS, READONLY, DEBUGGING
  9 .debug_frame  00000080  00000000  00000000  0000246c  2**2
                  CONTENTS, READONLY, DEBUGGING
 10 .debug_str    00000535  00000000  00000000  000024ec  2**0
                  CONTENTS, READONLY, DEBUGGING
 11 .debug_loc    00000112  00000000  00000000  00002a21  2**0
                  CONTENTS, READONLY, DEBUGGING
 12 .debug_ranges 00000030  00000000  00000000  00002b33  2**0
                  CONTENTS, READONLY, DEBUGGING

Disassembly of section .text:

00000000 <__vectors>:
   0:	0c 94 5a 00 	jmp	0xb4	; 0xb4 <__ctors_end>
   4:	0c 94 77 00 	jmp	0xee	; 0xee <__bad_interrupt>
   8:	0c 94 77 00 	jmp	0xee	; 0xee <__bad_interrupt>
   c:	0c 94 77 00 	jmp	0xee	; 0xee <__bad_interrupt>
  10:	0c 94 77 00 	jmp	0xee	; 0xee <__bad_interrupt>
  14:	0c 94 77 00 	jmp	0xee	; 0xee <__bad_interrupt>
  18:	0c 94 77 00 	jmp	0xee	; 0xee <__bad_interrupt>
  1c:	0c 94 77 00 	jmp	0xee	; 0xee <__bad_interrupt>
  20:	0c 94 77 00 	jmp	0xee	; 0xee <__bad_interrupt>
  24:	0c 94 77 00 	jmp	0xee	; 0xee <__bad_interrupt>
  28:	0c 94 77 00 	jmp	0xee	; 0xee <__bad_interrupt>
  2c:	0c 94 77 00 	jmp	0xee	; 0xee <__bad_interrupt>
  30:	0c 94 77 00 	jmp	0xee	; 0xee <__bad_interrupt>
  34:	0c 94 77 00 	jmp	0xee	; 0xee <__bad_interrupt>
  38:	0c 94 77 00 	jmp	0xee	; 0xee <__bad_interrupt>
  3c:	0c 94 77 00 	jmp	0xee	; 0xee <__bad_interrupt>
  40:	0c 94 77 00 	jmp	0xee	; 0xee <__bad_interrupt>
  44:	0c 94 77 00 	jmp	0xee	; 0xee <__bad_interrupt>
  48:	0c 94 77 00 	jmp	0xee	; 0xee <__bad_interrupt>
  4c:	0c 94 77 00 	jmp	0xee	; 0xee <__bad_interrupt>
  50:	0c 94 77 00 	jmp	0xee	; 0xee <__bad_interrupt>
  54:	0c 94 77 00 	jmp	0xee	; 0xee <__bad_interrupt>
  58:	0c 94 77 00 	jmp	0xee	; 0xee <__bad_interrupt>
  5c:	0c 94 77 00 	jmp	0xee	; 0xee <__bad_interrupt>
  60:	0c 94 77 00 	jmp	0xee	; 0xee <__bad_interrupt>
  64:	0c 94 77 00 	jmp	0xee	; 0xee <__bad_interrupt>
  68:	0c 94 77 00 	jmp	0xee	; 0xee <__bad_interrupt>
  6c:	0c 94 77 00 	jmp	0xee	; 0xee <__bad_interrupt>
  70:	0c 94 77 00 	jmp	0xee	; 0xee <__bad_interrupt>
  74:	0c 94 77 00 	jmp	0xee	; 0xee <__bad_interrupt>
  78:	0c 94 77 00 	jmp	0xee	; 0xee <__bad_interrupt>
  7c:	0c 94 77 00 	jmp	0xee	; 0xee <__bad_interrupt>
  80:	0c 94 77 00 	jmp	0xee	; 0xee <__bad_interrupt>
  84:	0c 94 77 00 	jmp	0xee	; 0xee <__bad_interrupt>
  88:	0c 94 77 00 	jmp	0xee	; 0xee <__bad_interrupt>
  8c:	0c 94 77 00 	jmp	0xee	; 0xee <__bad_interrupt>
  90:	0c 94 77 00 	jmp	0xee	; 0xee <__bad_interrupt>
  94:	0c 94 77 00 	jmp	0xee	; 0xee <__bad_interrupt>
  98:	0c 94 77 00 	jmp	0xee	; 0xee <__bad_interrupt>
  9c:	0c 94 77 00 	jmp	0xee	; 0xee <__bad_interrupt>
  a0:	0c 94 77 00 	jmp	0xee	; 0xee <__bad_interrupt>
  a4:	0c 94 77 00 	jmp	0xee	; 0xee <__bad_interrupt>
  a8:	0c 94 77 00 	jmp	0xee	; 0xee <__bad_interrupt>
  ac:	0c 94 77 00 	jmp	0xee	; 0xee <__bad_interrupt>
  b0:	0c 94 77 00 	jmp	0xee	; 0xee <__bad_interrupt>

000000b4 <__ctors_end>:
  b4:	11 24       	eor	r1, r1
  b6:	1f be       	out	0x3f, r1	; 63
  b8:	cf ef       	ldi	r28, 0xFF	; 255
  ba:	d8 e0       	ldi	r29, 0x08	; 8
  bc:	de bf       	out	0x3e, r29	; 62
  be:	cd bf       	out	0x3d, r28	; 61

000000c0 <__do_copy_data>:
  c0:	11 e0       	ldi	r17, 0x01	; 1
  c2:	a0 e0       	ldi	r26, 0x00	; 0
  c4:	b1 e0       	ldi	r27, 0x01	; 1
  c6:	ec e4       	ldi	r30, 0x4C	; 76
  c8:	f7 e0       	ldi	r31, 0x07	; 7
  ca:	02 c0       	rjmp	.+4      	; 0xd0 <__do_copy_data+0x10>
  cc:	05 90       	lpm	r0, Z+
  ce:	0d 92       	st	X+, r0
  d0:	a0 33       	cpi	r26, 0x30	; 48
  d2:	b1 07       	cpc	r27, r17
  d4:	d9 f7       	brne	.-10     	; 0xcc <__do_copy_data+0xc>

000000d6 <__do_clear_bss>:
  d6:	21 e0       	ldi	r18, 0x01	; 1
  d8:	a0 e3       	ldi	r26, 0x30	; 48
  da:	b1 e0       	ldi	r27, 0x01	; 1
  dc:	01 c0       	rjmp	.+2      	; 0xe0 <.do_clear_bss_start>

000000de <.do_clear_bss_loop>:
  de:	1d 92       	st	X+, r1

000000e0 <.do_clear_bss_start>:
  e0:	a6 33       	cpi	r26, 0x36	; 54
  e2:	b2 07       	cpc	r27, r18
  e4:	e1 f7       	brne	.-8      	; 0xde <.do_clear_bss_loop>
  e6:	0e 94 ab 00 	call	0x156	; 0x156 <main>
  ea:	0c 94 a4 03 	jmp	0x748	; 0x748 <_exit>

000000ee <__bad_interrupt>:
  ee:	0c 94 00 00 	jmp	0	; 0x0 <__vectors>

000000f2 <uart_putchar>:
    stdout = &mystdout; //required by printf
    stdin  = &mystdin; //required by scanf
}

//redirect stdout to UART
int uart_putchar(char c, FILE *stream) {
  f2:	cf 93       	push	r28
  f4:	c8 2f       	mov	r28, r24
	if (c == '\n') {
  f6:	8a 30       	cpi	r24, 0x0A	; 10
  f8:	19 f4       	brne	.+6      	; 0x100 <uart_putchar+0xe>
		uart_putchar('\r', stream);
  fa:	8d e0       	ldi	r24, 0x0D	; 13
  fc:	0e 94 79 00 	call	0xf2	; 0xf2 <uart_putchar>
	}
	loop_until_bit_is_set(UCSR0A, UDRE0);
 100:	e0 ec       	ldi	r30, 0xC0	; 192
 102:	f0 e0       	ldi	r31, 0x00	; 0
 104:	80 81       	ld	r24, Z
 106:	85 ff       	sbrs	r24, 5
 108:	fd cf       	rjmp	.-6      	; 0x104 <uart_putchar+0x12>
	UDR0 = c;
 10a:	c0 93 c6 00 	sts	0x00C6, r28	; 0x8000c6 <__TEXT_REGION_LENGTH__+0x7e00c6>
	return 0;
}
 10e:	80 e0       	ldi	r24, 0x00	; 0
 110:	90 e0       	ldi	r25, 0x00	; 0
 112:	cf 91       	pop	r28
 114:	08 95       	ret

00000116 <uart_getchar>:

//redirect stdin to UART
int uart_getchar(FILE *stream) {
	loop_until_bit_is_set(UCSR0A, RXC0); /* Wait until data exists. */	
 116:	e0 ec       	ldi	r30, 0xC0	; 192
 118:	f0 e0       	ldi	r31, 0x00	; 0
 11a:	80 81       	ld	r24, Z
 11c:	88 23       	and	r24, r24
 11e:	ec f7       	brge	.-6      	; 0x11a <uart_getchar+0x4>
	return UDR0;
 120:	80 91 c6 00 	lds	r24, 0x00C6	; 0x8000c6 <__TEXT_REGION_LENGTH__+0x7e00c6>
 124:	90 e0       	ldi	r25, 0x00	; 0
 126:	08 95       	ret

00000128 <ioinit>:
static FILE mystdin = FDEV_SETUP_STREAM(NULL, uart_getchar, _FDEV_SETUP_READ); //redirect uart_getchar() to stdio

void ioinit (void)
{
    //USART Baud rate: 9600, 8data, 1stop
    UBRR0H = MYUBRR >> 8;
 128:	10 92 c5 00 	sts	0x00C5, r1	; 0x8000c5 <__TEXT_REGION_LENGTH__+0x7e00c5>
    UBRR0L = MYUBRR;
 12c:	87 e6       	ldi	r24, 0x67	; 103
 12e:	80 93 c4 00 	sts	0x00C4, r24	; 0x8000c4 <__TEXT_REGION_LENGTH__+0x7e00c4>
    UCSR0B = (1<<RXEN0)|(1<<TXEN0); //enable rx/tx
 132:	e1 ec       	ldi	r30, 0xC1	; 193
 134:	f0 e0       	ldi	r31, 0x00	; 0
 136:	88 e1       	ldi	r24, 0x18	; 24
 138:	80 83       	st	Z, r24
	UCSR0B |= (1 << RXCIE0); // Enable the USART Recieve Complete interrupt (USART_RXC)
 13a:	80 81       	ld	r24, Z
 13c:	80 68       	ori	r24, 0x80	; 128
 13e:	80 83       	st	Z, r24
    
    stdout = &mystdout; //required by printf
 140:	e0 e3       	ldi	r30, 0x30	; 48
 142:	f1 e0       	ldi	r31, 0x01	; 1
 144:	8e e0       	ldi	r24, 0x0E	; 14
 146:	91 e0       	ldi	r25, 0x01	; 1
 148:	93 83       	std	Z+3, r25	; 0x03
 14a:	82 83       	std	Z+2, r24	; 0x02
    stdin  = &mystdin; //required by scanf
 14c:	80 e0       	ldi	r24, 0x00	; 0
 14e:	91 e0       	ldi	r25, 0x01	; 1
 150:	91 83       	std	Z+1, r25	; 0x01
 152:	80 83       	st	Z, r24
 154:	08 95       	ret

00000156 <main>:
#include "Library/STDIO_UART.h" // Needed for stdio to UART redirection
#include <util/delay.h> // needed for blocking delay

int main(void)
{
	ioinit(); //Setup UART and STDIO
 156:	0e 94 94 00 	call	0x128	; 0x128 <ioinit>
	int counter = 0;
 15a:	c0 e0       	ldi	r28, 0x00	; 0
 15c:	d0 e0       	ldi	r29, 0x00	; 0
	
    /* Replace with your application code */
    while (1) 
    {
		printf("From Xplained %d \n", counter);
 15e:	0c e1       	ldi	r16, 0x1C	; 28
 160:	11 e0       	ldi	r17, 0x01	; 1
 162:	df 93       	push	r29
 164:	cf 93       	push	r28
 166:	1f 93       	push	r17
 168:	0f 93       	push	r16
 16a:	0e 94 c6 00 	call	0x18c	; 0x18c <printf>
		counter++;
 16e:	21 96       	adiw	r28, 0x01	; 1
	#else
		//round up by default
		__ticks_dc = (uint32_t)(ceil(fabs(__tmp)));
	#endif

	__builtin_avr_delay_cycles(__ticks_dc);
 170:	9f ef       	ldi	r25, 0xFF	; 255
 172:	29 e6       	ldi	r18, 0x69	; 105
 174:	88 e1       	ldi	r24, 0x18	; 24
 176:	91 50       	subi	r25, 0x01	; 1
 178:	20 40       	sbci	r18, 0x00	; 0
 17a:	80 40       	sbci	r24, 0x00	; 0
 17c:	e1 f7       	brne	.-8      	; 0x176 <main+0x20>
 17e:	00 c0       	rjmp	.+0      	; 0x180 <main+0x2a>
 180:	00 00       	nop
 182:	0f 90       	pop	r0
 184:	0f 90       	pop	r0
 186:	0f 90       	pop	r0
 188:	0f 90       	pop	r0
 18a:	eb cf       	rjmp	.-42     	; 0x162 <main+0xc>

0000018c <printf>:
 18c:	a0 e0       	ldi	r26, 0x00	; 0
 18e:	b0 e0       	ldi	r27, 0x00	; 0
 190:	ec ec       	ldi	r30, 0xCC	; 204
 192:	f0 e0       	ldi	r31, 0x00	; 0
 194:	0c 94 7d 03 	jmp	0x6fa	; 0x6fa <__prologue_saves__+0x20>
 198:	ae 01       	movw	r20, r28
 19a:	4b 5f       	subi	r20, 0xFB	; 251
 19c:	5f 4f       	sbci	r21, 0xFF	; 255
 19e:	fa 01       	movw	r30, r20
 1a0:	61 91       	ld	r22, Z+
 1a2:	71 91       	ld	r23, Z+
 1a4:	af 01       	movw	r20, r30
 1a6:	80 91 32 01 	lds	r24, 0x0132	; 0x800132 <__data_end+0x2>
 1aa:	90 91 33 01 	lds	r25, 0x0133	; 0x800133 <__data_end+0x3>
 1ae:	0e 94 dc 00 	call	0x1b8	; 0x1b8 <vfprintf>
 1b2:	e2 e0       	ldi	r30, 0x02	; 2
 1b4:	0c 94 99 03 	jmp	0x732	; 0x732 <__epilogue_restores__+0x20>

000001b8 <vfprintf>:
 1b8:	ab e0       	ldi	r26, 0x0B	; 11
 1ba:	b0 e0       	ldi	r27, 0x00	; 0
 1bc:	e2 ee       	ldi	r30, 0xE2	; 226
 1be:	f0 e0       	ldi	r31, 0x00	; 0
 1c0:	0c 94 6d 03 	jmp	0x6da	; 0x6da <__prologue_saves__>
 1c4:	6c 01       	movw	r12, r24
 1c6:	7b 01       	movw	r14, r22
 1c8:	8a 01       	movw	r16, r20
 1ca:	fc 01       	movw	r30, r24
 1cc:	17 82       	std	Z+7, r1	; 0x07
 1ce:	16 82       	std	Z+6, r1	; 0x06
 1d0:	83 81       	ldd	r24, Z+3	; 0x03
 1d2:	81 ff       	sbrs	r24, 1
 1d4:	cc c1       	rjmp	.+920    	; 0x56e <__LOCK_REGION_LENGTH__+0x16e>
 1d6:	ce 01       	movw	r24, r28
 1d8:	01 96       	adiw	r24, 0x01	; 1
 1da:	3c 01       	movw	r6, r24
 1dc:	f6 01       	movw	r30, r12
 1de:	93 81       	ldd	r25, Z+3	; 0x03
 1e0:	f7 01       	movw	r30, r14
 1e2:	93 fd       	sbrc	r25, 3
 1e4:	85 91       	lpm	r24, Z+
 1e6:	93 ff       	sbrs	r25, 3
 1e8:	81 91       	ld	r24, Z+
 1ea:	7f 01       	movw	r14, r30
 1ec:	88 23       	and	r24, r24
 1ee:	09 f4       	brne	.+2      	; 0x1f2 <vfprintf+0x3a>
 1f0:	ba c1       	rjmp	.+884    	; 0x566 <__LOCK_REGION_LENGTH__+0x166>
 1f2:	85 32       	cpi	r24, 0x25	; 37
 1f4:	39 f4       	brne	.+14     	; 0x204 <vfprintf+0x4c>
 1f6:	93 fd       	sbrc	r25, 3
 1f8:	85 91       	lpm	r24, Z+
 1fa:	93 ff       	sbrs	r25, 3
 1fc:	81 91       	ld	r24, Z+
 1fe:	7f 01       	movw	r14, r30
 200:	85 32       	cpi	r24, 0x25	; 37
 202:	29 f4       	brne	.+10     	; 0x20e <vfprintf+0x56>
 204:	b6 01       	movw	r22, r12
 206:	90 e0       	ldi	r25, 0x00	; 0
 208:	0e 94 d3 02 	call	0x5a6	; 0x5a6 <fputc>
 20c:	e7 cf       	rjmp	.-50     	; 0x1dc <vfprintf+0x24>
 20e:	91 2c       	mov	r9, r1
 210:	21 2c       	mov	r2, r1
 212:	31 2c       	mov	r3, r1
 214:	ff e1       	ldi	r31, 0x1F	; 31
 216:	f3 15       	cp	r31, r3
 218:	d8 f0       	brcs	.+54     	; 0x250 <vfprintf+0x98>
 21a:	8b 32       	cpi	r24, 0x2B	; 43
 21c:	79 f0       	breq	.+30     	; 0x23c <vfprintf+0x84>
 21e:	38 f4       	brcc	.+14     	; 0x22e <vfprintf+0x76>
 220:	80 32       	cpi	r24, 0x20	; 32
 222:	79 f0       	breq	.+30     	; 0x242 <vfprintf+0x8a>
 224:	83 32       	cpi	r24, 0x23	; 35
 226:	a1 f4       	brne	.+40     	; 0x250 <vfprintf+0x98>
 228:	23 2d       	mov	r18, r3
 22a:	20 61       	ori	r18, 0x10	; 16
 22c:	1d c0       	rjmp	.+58     	; 0x268 <vfprintf+0xb0>
 22e:	8d 32       	cpi	r24, 0x2D	; 45
 230:	61 f0       	breq	.+24     	; 0x24a <vfprintf+0x92>
 232:	80 33       	cpi	r24, 0x30	; 48
 234:	69 f4       	brne	.+26     	; 0x250 <vfprintf+0x98>
 236:	23 2d       	mov	r18, r3
 238:	21 60       	ori	r18, 0x01	; 1
 23a:	16 c0       	rjmp	.+44     	; 0x268 <vfprintf+0xb0>
 23c:	83 2d       	mov	r24, r3
 23e:	82 60       	ori	r24, 0x02	; 2
 240:	38 2e       	mov	r3, r24
 242:	e3 2d       	mov	r30, r3
 244:	e4 60       	ori	r30, 0x04	; 4
 246:	3e 2e       	mov	r3, r30
 248:	2a c0       	rjmp	.+84     	; 0x29e <vfprintf+0xe6>
 24a:	f3 2d       	mov	r31, r3
 24c:	f8 60       	ori	r31, 0x08	; 8
 24e:	1d c0       	rjmp	.+58     	; 0x28a <vfprintf+0xd2>
 250:	37 fc       	sbrc	r3, 7
 252:	2d c0       	rjmp	.+90     	; 0x2ae <vfprintf+0xf6>
 254:	20 ed       	ldi	r18, 0xD0	; 208
 256:	28 0f       	add	r18, r24
 258:	2a 30       	cpi	r18, 0x0A	; 10
 25a:	40 f0       	brcs	.+16     	; 0x26c <vfprintf+0xb4>
 25c:	8e 32       	cpi	r24, 0x2E	; 46
 25e:	b9 f4       	brne	.+46     	; 0x28e <vfprintf+0xd6>
 260:	36 fc       	sbrc	r3, 6
 262:	81 c1       	rjmp	.+770    	; 0x566 <__LOCK_REGION_LENGTH__+0x166>
 264:	23 2d       	mov	r18, r3
 266:	20 64       	ori	r18, 0x40	; 64
 268:	32 2e       	mov	r3, r18
 26a:	19 c0       	rjmp	.+50     	; 0x29e <vfprintf+0xe6>
 26c:	36 fe       	sbrs	r3, 6
 26e:	06 c0       	rjmp	.+12     	; 0x27c <vfprintf+0xc4>
 270:	8a e0       	ldi	r24, 0x0A	; 10
 272:	98 9e       	mul	r9, r24
 274:	20 0d       	add	r18, r0
 276:	11 24       	eor	r1, r1
 278:	92 2e       	mov	r9, r18
 27a:	11 c0       	rjmp	.+34     	; 0x29e <vfprintf+0xe6>
 27c:	ea e0       	ldi	r30, 0x0A	; 10
 27e:	2e 9e       	mul	r2, r30
 280:	20 0d       	add	r18, r0
 282:	11 24       	eor	r1, r1
 284:	22 2e       	mov	r2, r18
 286:	f3 2d       	mov	r31, r3
 288:	f0 62       	ori	r31, 0x20	; 32
 28a:	3f 2e       	mov	r3, r31
 28c:	08 c0       	rjmp	.+16     	; 0x29e <vfprintf+0xe6>
 28e:	8c 36       	cpi	r24, 0x6C	; 108
 290:	21 f4       	brne	.+8      	; 0x29a <vfprintf+0xe2>
 292:	83 2d       	mov	r24, r3
 294:	80 68       	ori	r24, 0x80	; 128
 296:	38 2e       	mov	r3, r24
 298:	02 c0       	rjmp	.+4      	; 0x29e <vfprintf+0xe6>
 29a:	88 36       	cpi	r24, 0x68	; 104
 29c:	41 f4       	brne	.+16     	; 0x2ae <vfprintf+0xf6>
 29e:	f7 01       	movw	r30, r14
 2a0:	93 fd       	sbrc	r25, 3
 2a2:	85 91       	lpm	r24, Z+
 2a4:	93 ff       	sbrs	r25, 3
 2a6:	81 91       	ld	r24, Z+
 2a8:	7f 01       	movw	r14, r30
 2aa:	81 11       	cpse	r24, r1
 2ac:	b3 cf       	rjmp	.-154    	; 0x214 <vfprintf+0x5c>
 2ae:	98 2f       	mov	r25, r24
 2b0:	9f 7d       	andi	r25, 0xDF	; 223
 2b2:	95 54       	subi	r25, 0x45	; 69
 2b4:	93 30       	cpi	r25, 0x03	; 3
 2b6:	28 f4       	brcc	.+10     	; 0x2c2 <vfprintf+0x10a>
 2b8:	0c 5f       	subi	r16, 0xFC	; 252
 2ba:	1f 4f       	sbci	r17, 0xFF	; 255
 2bc:	9f e3       	ldi	r25, 0x3F	; 63
 2be:	99 83       	std	Y+1, r25	; 0x01
 2c0:	0d c0       	rjmp	.+26     	; 0x2dc <vfprintf+0x124>
 2c2:	83 36       	cpi	r24, 0x63	; 99
 2c4:	31 f0       	breq	.+12     	; 0x2d2 <vfprintf+0x11a>
 2c6:	83 37       	cpi	r24, 0x73	; 115
 2c8:	71 f0       	breq	.+28     	; 0x2e6 <vfprintf+0x12e>
 2ca:	83 35       	cpi	r24, 0x53	; 83
 2cc:	09 f0       	breq	.+2      	; 0x2d0 <vfprintf+0x118>
 2ce:	59 c0       	rjmp	.+178    	; 0x382 <vfprintf+0x1ca>
 2d0:	21 c0       	rjmp	.+66     	; 0x314 <vfprintf+0x15c>
 2d2:	f8 01       	movw	r30, r16
 2d4:	80 81       	ld	r24, Z
 2d6:	89 83       	std	Y+1, r24	; 0x01
 2d8:	0e 5f       	subi	r16, 0xFE	; 254
 2da:	1f 4f       	sbci	r17, 0xFF	; 255
 2dc:	88 24       	eor	r8, r8
 2de:	83 94       	inc	r8
 2e0:	91 2c       	mov	r9, r1
 2e2:	53 01       	movw	r10, r6
 2e4:	13 c0       	rjmp	.+38     	; 0x30c <vfprintf+0x154>
 2e6:	28 01       	movw	r4, r16
 2e8:	f2 e0       	ldi	r31, 0x02	; 2
 2ea:	4f 0e       	add	r4, r31
 2ec:	51 1c       	adc	r5, r1
 2ee:	f8 01       	movw	r30, r16
 2f0:	a0 80       	ld	r10, Z
 2f2:	b1 80       	ldd	r11, Z+1	; 0x01
 2f4:	36 fe       	sbrs	r3, 6
 2f6:	03 c0       	rjmp	.+6      	; 0x2fe <vfprintf+0x146>
 2f8:	69 2d       	mov	r22, r9
 2fa:	70 e0       	ldi	r23, 0x00	; 0
 2fc:	02 c0       	rjmp	.+4      	; 0x302 <vfprintf+0x14a>
 2fe:	6f ef       	ldi	r22, 0xFF	; 255
 300:	7f ef       	ldi	r23, 0xFF	; 255
 302:	c5 01       	movw	r24, r10
 304:	0e 94 c8 02 	call	0x590	; 0x590 <strnlen>
 308:	4c 01       	movw	r8, r24
 30a:	82 01       	movw	r16, r4
 30c:	f3 2d       	mov	r31, r3
 30e:	ff 77       	andi	r31, 0x7F	; 127
 310:	3f 2e       	mov	r3, r31
 312:	16 c0       	rjmp	.+44     	; 0x340 <vfprintf+0x188>
 314:	28 01       	movw	r4, r16
 316:	22 e0       	ldi	r18, 0x02	; 2
 318:	42 0e       	add	r4, r18
 31a:	51 1c       	adc	r5, r1
 31c:	f8 01       	movw	r30, r16
 31e:	a0 80       	ld	r10, Z
 320:	b1 80       	ldd	r11, Z+1	; 0x01
 322:	36 fe       	sbrs	r3, 6
 324:	03 c0       	rjmp	.+6      	; 0x32c <vfprintf+0x174>
 326:	69 2d       	mov	r22, r9
 328:	70 e0       	ldi	r23, 0x00	; 0
 32a:	02 c0       	rjmp	.+4      	; 0x330 <vfprintf+0x178>
 32c:	6f ef       	ldi	r22, 0xFF	; 255
 32e:	7f ef       	ldi	r23, 0xFF	; 255
 330:	c5 01       	movw	r24, r10
 332:	0e 94 bd 02 	call	0x57a	; 0x57a <strnlen_P>
 336:	4c 01       	movw	r8, r24
 338:	f3 2d       	mov	r31, r3
 33a:	f0 68       	ori	r31, 0x80	; 128
 33c:	3f 2e       	mov	r3, r31
 33e:	82 01       	movw	r16, r4
 340:	33 fc       	sbrc	r3, 3
 342:	1b c0       	rjmp	.+54     	; 0x37a <vfprintf+0x1c2>
 344:	82 2d       	mov	r24, r2
 346:	90 e0       	ldi	r25, 0x00	; 0
 348:	88 16       	cp	r8, r24
 34a:	99 06       	cpc	r9, r25
 34c:	b0 f4       	brcc	.+44     	; 0x37a <vfprintf+0x1c2>
 34e:	b6 01       	movw	r22, r12
 350:	80 e2       	ldi	r24, 0x20	; 32
 352:	90 e0       	ldi	r25, 0x00	; 0
 354:	0e 94 d3 02 	call	0x5a6	; 0x5a6 <fputc>
 358:	2a 94       	dec	r2
 35a:	f4 cf       	rjmp	.-24     	; 0x344 <vfprintf+0x18c>
 35c:	f5 01       	movw	r30, r10
 35e:	37 fc       	sbrc	r3, 7
 360:	85 91       	lpm	r24, Z+
 362:	37 fe       	sbrs	r3, 7
 364:	81 91       	ld	r24, Z+
 366:	5f 01       	movw	r10, r30
 368:	b6 01       	movw	r22, r12
 36a:	90 e0       	ldi	r25, 0x00	; 0
 36c:	0e 94 d3 02 	call	0x5a6	; 0x5a6 <fputc>
 370:	21 10       	cpse	r2, r1
 372:	2a 94       	dec	r2
 374:	21 e0       	ldi	r18, 0x01	; 1
 376:	82 1a       	sub	r8, r18
 378:	91 08       	sbc	r9, r1
 37a:	81 14       	cp	r8, r1
 37c:	91 04       	cpc	r9, r1
 37e:	71 f7       	brne	.-36     	; 0x35c <vfprintf+0x1a4>
 380:	e8 c0       	rjmp	.+464    	; 0x552 <__LOCK_REGION_LENGTH__+0x152>
 382:	84 36       	cpi	r24, 0x64	; 100
 384:	11 f0       	breq	.+4      	; 0x38a <vfprintf+0x1d2>
 386:	89 36       	cpi	r24, 0x69	; 105
 388:	41 f5       	brne	.+80     	; 0x3da <vfprintf+0x222>
 38a:	f8 01       	movw	r30, r16
 38c:	37 fe       	sbrs	r3, 7
 38e:	07 c0       	rjmp	.+14     	; 0x39e <vfprintf+0x1e6>
 390:	60 81       	ld	r22, Z
 392:	71 81       	ldd	r23, Z+1	; 0x01
 394:	82 81       	ldd	r24, Z+2	; 0x02
 396:	93 81       	ldd	r25, Z+3	; 0x03
 398:	0c 5f       	subi	r16, 0xFC	; 252
 39a:	1f 4f       	sbci	r17, 0xFF	; 255
 39c:	08 c0       	rjmp	.+16     	; 0x3ae <vfprintf+0x1f6>
 39e:	60 81       	ld	r22, Z
 3a0:	71 81       	ldd	r23, Z+1	; 0x01
 3a2:	07 2e       	mov	r0, r23
 3a4:	00 0c       	add	r0, r0
 3a6:	88 0b       	sbc	r24, r24
 3a8:	99 0b       	sbc	r25, r25
 3aa:	0e 5f       	subi	r16, 0xFE	; 254
 3ac:	1f 4f       	sbci	r17, 0xFF	; 255
 3ae:	f3 2d       	mov	r31, r3
 3b0:	ff 76       	andi	r31, 0x6F	; 111
 3b2:	3f 2e       	mov	r3, r31
 3b4:	97 ff       	sbrs	r25, 7
 3b6:	09 c0       	rjmp	.+18     	; 0x3ca <vfprintf+0x212>
 3b8:	90 95       	com	r25
 3ba:	80 95       	com	r24
 3bc:	70 95       	com	r23
 3be:	61 95       	neg	r22
 3c0:	7f 4f       	sbci	r23, 0xFF	; 255
 3c2:	8f 4f       	sbci	r24, 0xFF	; 255
 3c4:	9f 4f       	sbci	r25, 0xFF	; 255
 3c6:	f0 68       	ori	r31, 0x80	; 128
 3c8:	3f 2e       	mov	r3, r31
 3ca:	2a e0       	ldi	r18, 0x0A	; 10
 3cc:	30 e0       	ldi	r19, 0x00	; 0
 3ce:	a3 01       	movw	r20, r6
 3d0:	0e 94 0f 03 	call	0x61e	; 0x61e <__ultoa_invert>
 3d4:	88 2e       	mov	r8, r24
 3d6:	86 18       	sub	r8, r6
 3d8:	45 c0       	rjmp	.+138    	; 0x464 <__LOCK_REGION_LENGTH__+0x64>
 3da:	85 37       	cpi	r24, 0x75	; 117
 3dc:	31 f4       	brne	.+12     	; 0x3ea <vfprintf+0x232>
 3de:	23 2d       	mov	r18, r3
 3e0:	2f 7e       	andi	r18, 0xEF	; 239
 3e2:	b2 2e       	mov	r11, r18
 3e4:	2a e0       	ldi	r18, 0x0A	; 10
 3e6:	30 e0       	ldi	r19, 0x00	; 0
 3e8:	25 c0       	rjmp	.+74     	; 0x434 <__LOCK_REGION_LENGTH__+0x34>
 3ea:	93 2d       	mov	r25, r3
 3ec:	99 7f       	andi	r25, 0xF9	; 249
 3ee:	b9 2e       	mov	r11, r25
 3f0:	8f 36       	cpi	r24, 0x6F	; 111
 3f2:	c1 f0       	breq	.+48     	; 0x424 <__LOCK_REGION_LENGTH__+0x24>
 3f4:	18 f4       	brcc	.+6      	; 0x3fc <vfprintf+0x244>
 3f6:	88 35       	cpi	r24, 0x58	; 88
 3f8:	79 f0       	breq	.+30     	; 0x418 <__LOCK_REGION_LENGTH__+0x18>
 3fa:	b5 c0       	rjmp	.+362    	; 0x566 <__LOCK_REGION_LENGTH__+0x166>
 3fc:	80 37       	cpi	r24, 0x70	; 112
 3fe:	19 f0       	breq	.+6      	; 0x406 <__LOCK_REGION_LENGTH__+0x6>
 400:	88 37       	cpi	r24, 0x78	; 120
 402:	21 f0       	breq	.+8      	; 0x40c <__LOCK_REGION_LENGTH__+0xc>
 404:	b0 c0       	rjmp	.+352    	; 0x566 <__LOCK_REGION_LENGTH__+0x166>
 406:	e9 2f       	mov	r30, r25
 408:	e0 61       	ori	r30, 0x10	; 16
 40a:	be 2e       	mov	r11, r30
 40c:	b4 fe       	sbrs	r11, 4
 40e:	0d c0       	rjmp	.+26     	; 0x42a <__LOCK_REGION_LENGTH__+0x2a>
 410:	fb 2d       	mov	r31, r11
 412:	f4 60       	ori	r31, 0x04	; 4
 414:	bf 2e       	mov	r11, r31
 416:	09 c0       	rjmp	.+18     	; 0x42a <__LOCK_REGION_LENGTH__+0x2a>
 418:	34 fe       	sbrs	r3, 4
 41a:	0a c0       	rjmp	.+20     	; 0x430 <__LOCK_REGION_LENGTH__+0x30>
 41c:	29 2f       	mov	r18, r25
 41e:	26 60       	ori	r18, 0x06	; 6
 420:	b2 2e       	mov	r11, r18
 422:	06 c0       	rjmp	.+12     	; 0x430 <__LOCK_REGION_LENGTH__+0x30>
 424:	28 e0       	ldi	r18, 0x08	; 8
 426:	30 e0       	ldi	r19, 0x00	; 0
 428:	05 c0       	rjmp	.+10     	; 0x434 <__LOCK_REGION_LENGTH__+0x34>
 42a:	20 e1       	ldi	r18, 0x10	; 16
 42c:	30 e0       	ldi	r19, 0x00	; 0
 42e:	02 c0       	rjmp	.+4      	; 0x434 <__LOCK_REGION_LENGTH__+0x34>
 430:	20 e1       	ldi	r18, 0x10	; 16
 432:	32 e0       	ldi	r19, 0x02	; 2
 434:	f8 01       	movw	r30, r16
 436:	b7 fe       	sbrs	r11, 7
 438:	07 c0       	rjmp	.+14     	; 0x448 <__LOCK_REGION_LENGTH__+0x48>
 43a:	60 81       	ld	r22, Z
 43c:	71 81       	ldd	r23, Z+1	; 0x01
 43e:	82 81       	ldd	r24, Z+2	; 0x02
 440:	93 81       	ldd	r25, Z+3	; 0x03
 442:	0c 5f       	subi	r16, 0xFC	; 252
 444:	1f 4f       	sbci	r17, 0xFF	; 255
 446:	06 c0       	rjmp	.+12     	; 0x454 <__LOCK_REGION_LENGTH__+0x54>
 448:	60 81       	ld	r22, Z
 44a:	71 81       	ldd	r23, Z+1	; 0x01
 44c:	80 e0       	ldi	r24, 0x00	; 0
 44e:	90 e0       	ldi	r25, 0x00	; 0
 450:	0e 5f       	subi	r16, 0xFE	; 254
 452:	1f 4f       	sbci	r17, 0xFF	; 255
 454:	a3 01       	movw	r20, r6
 456:	0e 94 0f 03 	call	0x61e	; 0x61e <__ultoa_invert>
 45a:	88 2e       	mov	r8, r24
 45c:	86 18       	sub	r8, r6
 45e:	fb 2d       	mov	r31, r11
 460:	ff 77       	andi	r31, 0x7F	; 127
 462:	3f 2e       	mov	r3, r31
 464:	36 fe       	sbrs	r3, 6
 466:	0d c0       	rjmp	.+26     	; 0x482 <__LOCK_REGION_LENGTH__+0x82>
 468:	23 2d       	mov	r18, r3
 46a:	2e 7f       	andi	r18, 0xFE	; 254
 46c:	a2 2e       	mov	r10, r18
 46e:	89 14       	cp	r8, r9
 470:	58 f4       	brcc	.+22     	; 0x488 <__LOCK_REGION_LENGTH__+0x88>
 472:	34 fe       	sbrs	r3, 4
 474:	0b c0       	rjmp	.+22     	; 0x48c <__LOCK_REGION_LENGTH__+0x8c>
 476:	32 fc       	sbrc	r3, 2
 478:	09 c0       	rjmp	.+18     	; 0x48c <__LOCK_REGION_LENGTH__+0x8c>
 47a:	83 2d       	mov	r24, r3
 47c:	8e 7e       	andi	r24, 0xEE	; 238
 47e:	a8 2e       	mov	r10, r24
 480:	05 c0       	rjmp	.+10     	; 0x48c <__LOCK_REGION_LENGTH__+0x8c>
 482:	b8 2c       	mov	r11, r8
 484:	a3 2c       	mov	r10, r3
 486:	03 c0       	rjmp	.+6      	; 0x48e <__LOCK_REGION_LENGTH__+0x8e>
 488:	b8 2c       	mov	r11, r8
 48a:	01 c0       	rjmp	.+2      	; 0x48e <__LOCK_REGION_LENGTH__+0x8e>
 48c:	b9 2c       	mov	r11, r9
 48e:	a4 fe       	sbrs	r10, 4
 490:	0f c0       	rjmp	.+30     	; 0x4b0 <__LOCK_REGION_LENGTH__+0xb0>
 492:	fe 01       	movw	r30, r28
 494:	e8 0d       	add	r30, r8
 496:	f1 1d       	adc	r31, r1
 498:	80 81       	ld	r24, Z
 49a:	80 33       	cpi	r24, 0x30	; 48
 49c:	21 f4       	brne	.+8      	; 0x4a6 <__LOCK_REGION_LENGTH__+0xa6>
 49e:	9a 2d       	mov	r25, r10
 4a0:	99 7e       	andi	r25, 0xE9	; 233
 4a2:	a9 2e       	mov	r10, r25
 4a4:	09 c0       	rjmp	.+18     	; 0x4b8 <__LOCK_REGION_LENGTH__+0xb8>
 4a6:	a2 fe       	sbrs	r10, 2
 4a8:	06 c0       	rjmp	.+12     	; 0x4b6 <__LOCK_REGION_LENGTH__+0xb6>
 4aa:	b3 94       	inc	r11
 4ac:	b3 94       	inc	r11
 4ae:	04 c0       	rjmp	.+8      	; 0x4b8 <__LOCK_REGION_LENGTH__+0xb8>
 4b0:	8a 2d       	mov	r24, r10
 4b2:	86 78       	andi	r24, 0x86	; 134
 4b4:	09 f0       	breq	.+2      	; 0x4b8 <__LOCK_REGION_LENGTH__+0xb8>
 4b6:	b3 94       	inc	r11
 4b8:	a3 fc       	sbrc	r10, 3
 4ba:	11 c0       	rjmp	.+34     	; 0x4de <__LOCK_REGION_LENGTH__+0xde>
 4bc:	a0 fe       	sbrs	r10, 0
 4be:	06 c0       	rjmp	.+12     	; 0x4cc <__LOCK_REGION_LENGTH__+0xcc>
 4c0:	b2 14       	cp	r11, r2
 4c2:	88 f4       	brcc	.+34     	; 0x4e6 <__LOCK_REGION_LENGTH__+0xe6>
 4c4:	28 0c       	add	r2, r8
 4c6:	92 2c       	mov	r9, r2
 4c8:	9b 18       	sub	r9, r11
 4ca:	0e c0       	rjmp	.+28     	; 0x4e8 <__LOCK_REGION_LENGTH__+0xe8>
 4cc:	b2 14       	cp	r11, r2
 4ce:	60 f4       	brcc	.+24     	; 0x4e8 <__LOCK_REGION_LENGTH__+0xe8>
 4d0:	b6 01       	movw	r22, r12
 4d2:	80 e2       	ldi	r24, 0x20	; 32
 4d4:	90 e0       	ldi	r25, 0x00	; 0
 4d6:	0e 94 d3 02 	call	0x5a6	; 0x5a6 <fputc>
 4da:	b3 94       	inc	r11
 4dc:	f7 cf       	rjmp	.-18     	; 0x4cc <__LOCK_REGION_LENGTH__+0xcc>
 4de:	b2 14       	cp	r11, r2
 4e0:	18 f4       	brcc	.+6      	; 0x4e8 <__LOCK_REGION_LENGTH__+0xe8>
 4e2:	2b 18       	sub	r2, r11
 4e4:	02 c0       	rjmp	.+4      	; 0x4ea <__LOCK_REGION_LENGTH__+0xea>
 4e6:	98 2c       	mov	r9, r8
 4e8:	21 2c       	mov	r2, r1
 4ea:	a4 fe       	sbrs	r10, 4
 4ec:	10 c0       	rjmp	.+32     	; 0x50e <__LOCK_REGION_LENGTH__+0x10e>
 4ee:	b6 01       	movw	r22, r12
 4f0:	80 e3       	ldi	r24, 0x30	; 48
 4f2:	90 e0       	ldi	r25, 0x00	; 0
 4f4:	0e 94 d3 02 	call	0x5a6	; 0x5a6 <fputc>
 4f8:	a2 fe       	sbrs	r10, 2
 4fa:	17 c0       	rjmp	.+46     	; 0x52a <__LOCK_REGION_LENGTH__+0x12a>
 4fc:	a1 fc       	sbrc	r10, 1
 4fe:	03 c0       	rjmp	.+6      	; 0x506 <__LOCK_REGION_LENGTH__+0x106>
 500:	88 e7       	ldi	r24, 0x78	; 120
 502:	90 e0       	ldi	r25, 0x00	; 0
 504:	02 c0       	rjmp	.+4      	; 0x50a <__LOCK_REGION_LENGTH__+0x10a>
 506:	88 e5       	ldi	r24, 0x58	; 88
 508:	90 e0       	ldi	r25, 0x00	; 0
 50a:	b6 01       	movw	r22, r12
 50c:	0c c0       	rjmp	.+24     	; 0x526 <__LOCK_REGION_LENGTH__+0x126>
 50e:	8a 2d       	mov	r24, r10
 510:	86 78       	andi	r24, 0x86	; 134
 512:	59 f0       	breq	.+22     	; 0x52a <__LOCK_REGION_LENGTH__+0x12a>
 514:	a1 fe       	sbrs	r10, 1
 516:	02 c0       	rjmp	.+4      	; 0x51c <__LOCK_REGION_LENGTH__+0x11c>
 518:	8b e2       	ldi	r24, 0x2B	; 43
 51a:	01 c0       	rjmp	.+2      	; 0x51e <__LOCK_REGION_LENGTH__+0x11e>
 51c:	80 e2       	ldi	r24, 0x20	; 32
 51e:	a7 fc       	sbrc	r10, 7
 520:	8d e2       	ldi	r24, 0x2D	; 45
 522:	b6 01       	movw	r22, r12
 524:	90 e0       	ldi	r25, 0x00	; 0
 526:	0e 94 d3 02 	call	0x5a6	; 0x5a6 <fputc>
 52a:	89 14       	cp	r8, r9
 52c:	38 f4       	brcc	.+14     	; 0x53c <__LOCK_REGION_LENGTH__+0x13c>
 52e:	b6 01       	movw	r22, r12
 530:	80 e3       	ldi	r24, 0x30	; 48
 532:	90 e0       	ldi	r25, 0x00	; 0
 534:	0e 94 d3 02 	call	0x5a6	; 0x5a6 <fputc>
 538:	9a 94       	dec	r9
 53a:	f7 cf       	rjmp	.-18     	; 0x52a <__LOCK_REGION_LENGTH__+0x12a>
 53c:	8a 94       	dec	r8
 53e:	f3 01       	movw	r30, r6
 540:	e8 0d       	add	r30, r8
 542:	f1 1d       	adc	r31, r1
 544:	80 81       	ld	r24, Z
 546:	b6 01       	movw	r22, r12
 548:	90 e0       	ldi	r25, 0x00	; 0
 54a:	0e 94 d3 02 	call	0x5a6	; 0x5a6 <fputc>
 54e:	81 10       	cpse	r8, r1
 550:	f5 cf       	rjmp	.-22     	; 0x53c <__LOCK_REGION_LENGTH__+0x13c>
 552:	22 20       	and	r2, r2
 554:	09 f4       	brne	.+2      	; 0x558 <__LOCK_REGION_LENGTH__+0x158>
 556:	42 ce       	rjmp	.-892    	; 0x1dc <vfprintf+0x24>
 558:	b6 01       	movw	r22, r12
 55a:	80 e2       	ldi	r24, 0x20	; 32
 55c:	90 e0       	ldi	r25, 0x00	; 0
 55e:	0e 94 d3 02 	call	0x5a6	; 0x5a6 <fputc>
 562:	2a 94       	dec	r2
 564:	f6 cf       	rjmp	.-20     	; 0x552 <__LOCK_REGION_LENGTH__+0x152>
 566:	f6 01       	movw	r30, r12
 568:	86 81       	ldd	r24, Z+6	; 0x06
 56a:	97 81       	ldd	r25, Z+7	; 0x07
 56c:	02 c0       	rjmp	.+4      	; 0x572 <__LOCK_REGION_LENGTH__+0x172>
 56e:	8f ef       	ldi	r24, 0xFF	; 255
 570:	9f ef       	ldi	r25, 0xFF	; 255
 572:	2b 96       	adiw	r28, 0x0b	; 11
 574:	e2 e1       	ldi	r30, 0x12	; 18
 576:	0c 94 89 03 	jmp	0x712	; 0x712 <__epilogue_restores__>

0000057a <strnlen_P>:
 57a:	fc 01       	movw	r30, r24
 57c:	05 90       	lpm	r0, Z+
 57e:	61 50       	subi	r22, 0x01	; 1
 580:	70 40       	sbci	r23, 0x00	; 0
 582:	01 10       	cpse	r0, r1
 584:	d8 f7       	brcc	.-10     	; 0x57c <strnlen_P+0x2>
 586:	80 95       	com	r24
 588:	90 95       	com	r25
 58a:	8e 0f       	add	r24, r30
 58c:	9f 1f       	adc	r25, r31
 58e:	08 95       	ret

00000590 <strnlen>:
 590:	fc 01       	movw	r30, r24
 592:	61 50       	subi	r22, 0x01	; 1
 594:	70 40       	sbci	r23, 0x00	; 0
 596:	01 90       	ld	r0, Z+
 598:	01 10       	cpse	r0, r1
 59a:	d8 f7       	brcc	.-10     	; 0x592 <strnlen+0x2>
 59c:	80 95       	com	r24
 59e:	90 95       	com	r25
 5a0:	8e 0f       	add	r24, r30
 5a2:	9f 1f       	adc	r25, r31
 5a4:	08 95       	ret

000005a6 <fputc>:
 5a6:	0f 93       	push	r16
 5a8:	1f 93       	push	r17
 5aa:	cf 93       	push	r28
 5ac:	df 93       	push	r29
 5ae:	fb 01       	movw	r30, r22
 5b0:	23 81       	ldd	r18, Z+3	; 0x03
 5b2:	21 fd       	sbrc	r18, 1
 5b4:	03 c0       	rjmp	.+6      	; 0x5bc <fputc+0x16>
 5b6:	8f ef       	ldi	r24, 0xFF	; 255
 5b8:	9f ef       	ldi	r25, 0xFF	; 255
 5ba:	2c c0       	rjmp	.+88     	; 0x614 <fputc+0x6e>
 5bc:	22 ff       	sbrs	r18, 2
 5be:	16 c0       	rjmp	.+44     	; 0x5ec <fputc+0x46>
 5c0:	46 81       	ldd	r20, Z+6	; 0x06
 5c2:	57 81       	ldd	r21, Z+7	; 0x07
 5c4:	24 81       	ldd	r18, Z+4	; 0x04
 5c6:	35 81       	ldd	r19, Z+5	; 0x05
 5c8:	42 17       	cp	r20, r18
 5ca:	53 07       	cpc	r21, r19
 5cc:	44 f4       	brge	.+16     	; 0x5de <fputc+0x38>
 5ce:	a0 81       	ld	r26, Z
 5d0:	b1 81       	ldd	r27, Z+1	; 0x01
 5d2:	9d 01       	movw	r18, r26
 5d4:	2f 5f       	subi	r18, 0xFF	; 255
 5d6:	3f 4f       	sbci	r19, 0xFF	; 255
 5d8:	31 83       	std	Z+1, r19	; 0x01
 5da:	20 83       	st	Z, r18
 5dc:	8c 93       	st	X, r24
 5de:	26 81       	ldd	r18, Z+6	; 0x06
 5e0:	37 81       	ldd	r19, Z+7	; 0x07
 5e2:	2f 5f       	subi	r18, 0xFF	; 255
 5e4:	3f 4f       	sbci	r19, 0xFF	; 255
 5e6:	37 83       	std	Z+7, r19	; 0x07
 5e8:	26 83       	std	Z+6, r18	; 0x06
 5ea:	14 c0       	rjmp	.+40     	; 0x614 <fputc+0x6e>
 5ec:	8b 01       	movw	r16, r22
 5ee:	ec 01       	movw	r28, r24
 5f0:	fb 01       	movw	r30, r22
 5f2:	00 84       	ldd	r0, Z+8	; 0x08
 5f4:	f1 85       	ldd	r31, Z+9	; 0x09
 5f6:	e0 2d       	mov	r30, r0
 5f8:	09 95       	icall
 5fa:	89 2b       	or	r24, r25
 5fc:	e1 f6       	brne	.-72     	; 0x5b6 <fputc+0x10>
 5fe:	d8 01       	movw	r26, r16
 600:	16 96       	adiw	r26, 0x06	; 6
 602:	8d 91       	ld	r24, X+
 604:	9c 91       	ld	r25, X
 606:	17 97       	sbiw	r26, 0x07	; 7
 608:	01 96       	adiw	r24, 0x01	; 1
 60a:	17 96       	adiw	r26, 0x07	; 7
 60c:	9c 93       	st	X, r25
 60e:	8e 93       	st	-X, r24
 610:	16 97       	sbiw	r26, 0x06	; 6
 612:	ce 01       	movw	r24, r28
 614:	df 91       	pop	r29
 616:	cf 91       	pop	r28
 618:	1f 91       	pop	r17
 61a:	0f 91       	pop	r16
 61c:	08 95       	ret

0000061e <__ultoa_invert>:
 61e:	fa 01       	movw	r30, r20
 620:	aa 27       	eor	r26, r26
 622:	28 30       	cpi	r18, 0x08	; 8
 624:	51 f1       	breq	.+84     	; 0x67a <__ultoa_invert+0x5c>
 626:	20 31       	cpi	r18, 0x10	; 16
 628:	81 f1       	breq	.+96     	; 0x68a <__ultoa_invert+0x6c>
 62a:	e8 94       	clt
 62c:	6f 93       	push	r22
 62e:	6e 7f       	andi	r22, 0xFE	; 254
 630:	6e 5f       	subi	r22, 0xFE	; 254
 632:	7f 4f       	sbci	r23, 0xFF	; 255
 634:	8f 4f       	sbci	r24, 0xFF	; 255
 636:	9f 4f       	sbci	r25, 0xFF	; 255
 638:	af 4f       	sbci	r26, 0xFF	; 255
 63a:	b1 e0       	ldi	r27, 0x01	; 1
 63c:	3e d0       	rcall	.+124    	; 0x6ba <__ultoa_invert+0x9c>
 63e:	b4 e0       	ldi	r27, 0x04	; 4
 640:	3c d0       	rcall	.+120    	; 0x6ba <__ultoa_invert+0x9c>
 642:	67 0f       	add	r22, r23
 644:	78 1f       	adc	r23, r24
 646:	89 1f       	adc	r24, r25
 648:	9a 1f       	adc	r25, r26
 64a:	a1 1d       	adc	r26, r1
 64c:	68 0f       	add	r22, r24
 64e:	79 1f       	adc	r23, r25
 650:	8a 1f       	adc	r24, r26
 652:	91 1d       	adc	r25, r1
 654:	a1 1d       	adc	r26, r1
 656:	6a 0f       	add	r22, r26
 658:	71 1d       	adc	r23, r1
 65a:	81 1d       	adc	r24, r1
 65c:	91 1d       	adc	r25, r1
 65e:	a1 1d       	adc	r26, r1
 660:	20 d0       	rcall	.+64     	; 0x6a2 <__ultoa_invert+0x84>
 662:	09 f4       	brne	.+2      	; 0x666 <__ultoa_invert+0x48>
 664:	68 94       	set
 666:	3f 91       	pop	r19
 668:	2a e0       	ldi	r18, 0x0A	; 10
 66a:	26 9f       	mul	r18, r22
 66c:	11 24       	eor	r1, r1
 66e:	30 19       	sub	r19, r0
 670:	30 5d       	subi	r19, 0xD0	; 208
 672:	31 93       	st	Z+, r19
 674:	de f6       	brtc	.-74     	; 0x62c <__ultoa_invert+0xe>
 676:	cf 01       	movw	r24, r30
 678:	08 95       	ret
 67a:	46 2f       	mov	r20, r22
 67c:	47 70       	andi	r20, 0x07	; 7
 67e:	40 5d       	subi	r20, 0xD0	; 208
 680:	41 93       	st	Z+, r20
 682:	b3 e0       	ldi	r27, 0x03	; 3
 684:	0f d0       	rcall	.+30     	; 0x6a4 <__ultoa_invert+0x86>
 686:	c9 f7       	brne	.-14     	; 0x67a <__ultoa_invert+0x5c>
 688:	f6 cf       	rjmp	.-20     	; 0x676 <__ultoa_invert+0x58>
 68a:	46 2f       	mov	r20, r22
 68c:	4f 70       	andi	r20, 0x0F	; 15
 68e:	40 5d       	subi	r20, 0xD0	; 208
 690:	4a 33       	cpi	r20, 0x3A	; 58
 692:	18 f0       	brcs	.+6      	; 0x69a <__ultoa_invert+0x7c>
 694:	49 5d       	subi	r20, 0xD9	; 217
 696:	31 fd       	sbrc	r19, 1
 698:	40 52       	subi	r20, 0x20	; 32
 69a:	41 93       	st	Z+, r20
 69c:	02 d0       	rcall	.+4      	; 0x6a2 <__ultoa_invert+0x84>
 69e:	a9 f7       	brne	.-22     	; 0x68a <__ultoa_invert+0x6c>
 6a0:	ea cf       	rjmp	.-44     	; 0x676 <__ultoa_invert+0x58>
 6a2:	b4 e0       	ldi	r27, 0x04	; 4
 6a4:	a6 95       	lsr	r26
 6a6:	97 95       	ror	r25
 6a8:	87 95       	ror	r24
 6aa:	77 95       	ror	r23
 6ac:	67 95       	ror	r22
 6ae:	ba 95       	dec	r27
 6b0:	c9 f7       	brne	.-14     	; 0x6a4 <__ultoa_invert+0x86>
 6b2:	00 97       	sbiw	r24, 0x00	; 0
 6b4:	61 05       	cpc	r22, r1
 6b6:	71 05       	cpc	r23, r1
 6b8:	08 95       	ret
 6ba:	9b 01       	movw	r18, r22
 6bc:	ac 01       	movw	r20, r24
 6be:	0a 2e       	mov	r0, r26
 6c0:	06 94       	lsr	r0
 6c2:	57 95       	ror	r21
 6c4:	47 95       	ror	r20
 6c6:	37 95       	ror	r19
 6c8:	27 95       	ror	r18
 6ca:	ba 95       	dec	r27
 6cc:	c9 f7       	brne	.-14     	; 0x6c0 <__ultoa_invert+0xa2>
 6ce:	62 0f       	add	r22, r18
 6d0:	73 1f       	adc	r23, r19
 6d2:	84 1f       	adc	r24, r20
 6d4:	95 1f       	adc	r25, r21
 6d6:	a0 1d       	adc	r26, r0
 6d8:	08 95       	ret

000006da <__prologue_saves__>:
 6da:	2f 92       	push	r2
 6dc:	3f 92       	push	r3
 6de:	4f 92       	push	r4
 6e0:	5f 92       	push	r5
 6e2:	6f 92       	push	r6
 6e4:	7f 92       	push	r7
 6e6:	8f 92       	push	r8
 6e8:	9f 92       	push	r9
 6ea:	af 92       	push	r10
 6ec:	bf 92       	push	r11
 6ee:	cf 92       	push	r12
 6f0:	df 92       	push	r13
 6f2:	ef 92       	push	r14
 6f4:	ff 92       	push	r15
 6f6:	0f 93       	push	r16
 6f8:	1f 93       	push	r17
 6fa:	cf 93       	push	r28
 6fc:	df 93       	push	r29
 6fe:	cd b7       	in	r28, 0x3d	; 61
 700:	de b7       	in	r29, 0x3e	; 62
 702:	ca 1b       	sub	r28, r26
 704:	db 0b       	sbc	r29, r27
 706:	0f b6       	in	r0, 0x3f	; 63
 708:	f8 94       	cli
 70a:	de bf       	out	0x3e, r29	; 62
 70c:	0f be       	out	0x3f, r0	; 63
 70e:	cd bf       	out	0x3d, r28	; 61
 710:	09 94       	ijmp

00000712 <__epilogue_restores__>:
 712:	2a 88       	ldd	r2, Y+18	; 0x12
 714:	39 88       	ldd	r3, Y+17	; 0x11
 716:	48 88       	ldd	r4, Y+16	; 0x10
 718:	5f 84       	ldd	r5, Y+15	; 0x0f
 71a:	6e 84       	ldd	r6, Y+14	; 0x0e
 71c:	7d 84       	ldd	r7, Y+13	; 0x0d
 71e:	8c 84       	ldd	r8, Y+12	; 0x0c
 720:	9b 84       	ldd	r9, Y+11	; 0x0b
 722:	aa 84       	ldd	r10, Y+10	; 0x0a
 724:	b9 84       	ldd	r11, Y+9	; 0x09
 726:	c8 84       	ldd	r12, Y+8	; 0x08
 728:	df 80       	ldd	r13, Y+7	; 0x07
 72a:	ee 80       	ldd	r14, Y+6	; 0x06
 72c:	fd 80       	ldd	r15, Y+5	; 0x05
 72e:	0c 81       	ldd	r16, Y+4	; 0x04
 730:	1b 81       	ldd	r17, Y+3	; 0x03
 732:	aa 81       	ldd	r26, Y+2	; 0x02
 734:	b9 81       	ldd	r27, Y+1	; 0x01
 736:	ce 0f       	add	r28, r30
 738:	d1 1d       	adc	r29, r1
 73a:	0f b6       	in	r0, 0x3f	; 63
 73c:	f8 94       	cli
 73e:	de bf       	out	0x3e, r29	; 62
 740:	0f be       	out	0x3f, r0	; 63
 742:	cd bf       	out	0x3d, r28	; 61
 744:	ed 01       	movw	r28, r26
 746:	08 95       	ret

00000748 <_exit>:
 748:	f8 94       	cli

0000074a <__stop_program>:
 74a:	ff cf       	rjmp	.-2      	; 0x74a <__stop_program>
